{
  "_format": "hh-sol-artifact-1",
  "contractName": "Vault",
  "sourceName": "contracts/Main/Vault.sol",
  "abi": [
    {
      "inputs": [
        {
          "internalType": "address",
          "name": "_token",
          "type": "address"
        }
      ],
      "stateMutability": "nonpayable",
      "type": "constructor"
    },
    {
      "inputs": [
        {
          "internalType": "uint256",
          "name": "amount",
          "type": "uint256"
        }
      ],
      "name": "deposit",
      "outputs": [],
      "stateMutability": "nonpayable",
      "type": "function"
    },
    {
      "inputs": [
        {
          "internalType": "uint256",
          "name": "amount",
          "type": "uint256"
        },
        {
          "internalType": "uint256",
          "name": "deadline",
          "type": "uint256"
        },
        {
          "internalType": "uint8",
          "name": "v",
          "type": "uint8"
        },
        {
          "internalType": "bytes32",
          "name": "r",
          "type": "bytes32"
        },
        {
          "internalType": "bytes32",
          "name": "s",
          "type": "bytes32"
        }
      ],
      "name": "depositWithPermit",
      "outputs": [],
      "stateMutability": "nonpayable",
      "type": "function"
    },
    {
      "inputs": [],
      "name": "token",
      "outputs": [
        {
          "internalType": "contract IERC20Permit",
          "name": "",
          "type": "address"
        }
      ],
      "stateMutability": "view",
      "type": "function"
    }
  ],
  "bytecode": "0x60a060405234801561001057600080fd5b5060405161072738038061072783398181016040528101906100329190610084565b8073ffffffffffffffffffffffffffffffffffffffff1660808173ffffffffffffffffffffffffffffffffffffffff1660601b81525050506100f6565b60008151905061007e816100df565b92915050565b60006020828403121561009657600080fd5b60006100a48482850161006f565b91505092915050565b60006100b8826100bf565b9050919050565b600073ffffffffffffffffffffffffffffffffffffffff82169050919050565b6100e8816100ad565b81146100f357600080fd5b50565b60805160601c6105ff61012860003960008181609e01528181610135015281816101ec015261029f01526105ff6000f3fe608060405234801561001057600080fd5b50600436106100415760003560e01c80634a970be714610046578063b6b55f2514610062578063fc0c546a1461007e575b600080fd5b610060600480360381019061005b9190610367565b61009c565b005b61007c6004803603810190610077919061033e565b6101ea565b005b61008661029d565b60405161009391906104cf565b60405180910390f35b7f000000000000000000000000000000000000000000000000000000000000000073ffffffffffffffffffffffffffffffffffffffff1663d505accf333088888888886040518863ffffffff1660e01b81526004016101019796959493929190610460565b600060405180830381600087803b15801561011b57600080fd5b505af115801561012f573d6000803e3d6000fd5b505050507f000000000000000000000000000000000000000000000000000000000000000073ffffffffffffffffffffffffffffffffffffffff166323b872dd3330886040518463ffffffff1660e01b815260040161019093929190610429565b602060405180830381600087803b1580156101aa57600080fd5b505af11580156101be573d6000803e3d6000fd5b505050506040513d601f19601f820116820180604052508101906101e29190610315565b505050505050565b7f000000000000000000000000000000000000000000000000000000000000000073ffffffffffffffffffffffffffffffffffffffff166323b872dd3330846040518463ffffffff1660e01b815260040161024793929190610429565b602060405180830381600087803b15801561026157600080fd5b505af1158015610275573d6000803e3d6000fd5b505050506040513d601f19601f820116820180604052508101906102999190610315565b5050565b7f000000000000000000000000000000000000000000000000000000000000000081565b6000815190506102d08161056d565b92915050565b6000813590506102e581610584565b92915050565b6000813590506102fa8161059b565b92915050565b60008135905061030f816105b2565b92915050565b60006020828403121561032757600080fd5b6000610335848285016102c1565b91505092915050565b60006020828403121561035057600080fd5b600061035e848285016102eb565b91505092915050565b600080600080600060a0868803121561037f57600080fd5b600061038d888289016102eb565b955050602061039e888289016102eb565b94505060406103af88828901610300565b93505060606103c0888289016102d6565b92505060806103d1888289016102d6565b9150509295509295909350565b6103e7816104ea565b82525050565b6103f681610508565b82525050565b61040581610549565b82525050565b61041481610532565b82525050565b6104238161053c565b82525050565b600060608201905061043e60008301866103de565b61044b60208301856103de565b610458604083018461040b565b949350505050565b600060e082019050610475600083018a6103de565b61048260208301896103de565b61048f604083018861040b565b61049c606083018761040b565b6104a9608083018661041a565b6104b660a08301856103ed565b6104c360c08301846103ed565b98975050505050505050565b60006020820190506104e460008301846103fc565b92915050565b60006104f582610512565b9050919050565b60008115159050919050565b6000819050919050565b600073ffffffffffffffffffffffffffffffffffffffff82169050919050565b6000819050919050565b600060ff82169050919050565b60006105548261055b565b9050919050565b600061056682610512565b9050919050565b610576816104fc565b811461058157600080fd5b50565b61058d81610508565b811461059857600080fd5b50565b6105a481610532565b81146105af57600080fd5b50565b6105bb8161053c565b81146105c657600080fd5b5056fea2646970667358221220e1e7cb371d4d33879469b9c451a5168a8f713c6788ea86f9187a099bc49348f064736f6c63430008040033",
  "linkReferences": {},
  "deployedLinkReferences": {}
}