{
  "_format": "hh-sol-artifact-1",
  "contractName": "MonoToken",
  "sourceName": "contracts/Main/Token.sol",
  "abi": [
    {
      "inputs": [],
      "stateMutability": "nonpayable",
      "type": "constructor"
    },
    {
      "anonymous": false,
      "inputs": [
        {
          "indexed": true,
          "internalType": "address",
          "name": "owner",
          "type": "address"
        },
        {
          "indexed": true,
          "internalType": "address",
          "name": "spender",
          "type": "address"
        },
        {
          "indexed": false,
          "internalType": "uint256",
          "name": "value",
          "type": "uint256"
        }
      ],
      "name": "Approval",
      "type": "event"
    },
    {
      "anonymous": false,
      "inputs": [
        {
          "indexed": true,
          "internalType": "address",
          "name": "previousOwner",
          "type": "address"
        },
        {
          "indexed": true,
          "internalType": "address",
          "name": "newOwner",
          "type": "address"
        }
      ],
      "name": "OwnershipTransferred",
      "type": "event"
    },
    {
      "anonymous": false,
      "inputs": [
        {
          "indexed": true,
          "internalType": "address",
          "name": "from",
          "type": "address"
        },
        {
          "indexed": true,
          "internalType": "address",
          "name": "to",
          "type": "address"
        },
        {
          "indexed": false,
          "internalType": "uint256",
          "name": "value",
          "type": "uint256"
        }
      ],
      "name": "Transfer",
      "type": "event"
    },
    {
      "inputs": [],
      "name": "DOMAIN_SEPARATOR",
      "outputs": [
        {
          "internalType": "bytes32",
          "name": "",
          "type": "bytes32"
        }
      ],
      "stateMutability": "view",
      "type": "function"
    },
    {
      "inputs": [
        {
          "internalType": "address",
          "name": "owner",
          "type": "address"
        },
        {
          "internalType": "address",
          "name": "spender",
          "type": "address"
        }
      ],
      "name": "allowance",
      "outputs": [
        {
          "internalType": "uint256",
          "name": "",
          "type": "uint256"
        }
      ],
      "stateMutability": "view",
      "type": "function"
    },
    {
      "inputs": [
        {
          "internalType": "address",
          "name": "spender",
          "type": "address"
        },
        {
          "internalType": "uint256",
          "name": "amount",
          "type": "uint256"
        }
      ],
      "name": "approve",
      "outputs": [
        {
          "internalType": "bool",
          "name": "",
          "type": "bool"
        }
      ],
      "stateMutability": "nonpayable",
      "type": "function"
    },
    {
      "inputs": [
        {
          "internalType": "address",
          "name": "account",
          "type": "address"
        }
      ],
      "name": "balanceOf",
      "outputs": [
        {
          "internalType": "uint256",
          "name": "",
          "type": "uint256"
        }
      ],
      "stateMutability": "view",
      "type": "function"
    },
    {
      "inputs": [],
      "name": "decimals",
      "outputs": [
        {
          "internalType": "uint8",
          "name": "",
          "type": "uint8"
        }
      ],
      "stateMutability": "view",
      "type": "function"
    },
    {
      "inputs": [
        {
          "internalType": "address",
          "name": "spender",
          "type": "address"
        },
        {
          "internalType": "uint256",
          "name": "subtractedValue",
          "type": "uint256"
        }
      ],
      "name": "decreaseAllowance",
      "outputs": [
        {
          "internalType": "bool",
          "name": "",
          "type": "bool"
        }
      ],
      "stateMutability": "nonpayable",
      "type": "function"
    },
    {
      "inputs": [
        {
          "internalType": "address",
          "name": "spender",
          "type": "address"
        },
        {
          "internalType": "uint256",
          "name": "addedValue",
          "type": "uint256"
        }
      ],
      "name": "increaseAllowance",
      "outputs": [
        {
          "internalType": "bool",
          "name": "",
          "type": "bool"
        }
      ],
      "stateMutability": "nonpayable",
      "type": "function"
    },
    {
      "inputs": [
        {
          "internalType": "address",
          "name": "to",
          "type": "address"
        },
        {
          "internalType": "uint256",
          "name": "amount",
          "type": "uint256"
        }
      ],
      "name": "mint",
      "outputs": [],
      "stateMutability": "nonpayable",
      "type": "function"
    },
    {
      "inputs": [],
      "name": "name",
      "outputs": [
        {
          "internalType": "string",
          "name": "",
          "type": "string"
        }
      ],
      "stateMutability": "view",
      "type": "function"
    },
    {
      "inputs": [
        {
          "internalType": "address",
          "name": "owner",
          "type": "address"
        }
      ],
      "name": "nonces",
      "outputs": [
        {
          "internalType": "uint256",
          "name": "",
          "type": "uint256"
        }
      ],
      "stateMutability": "view",
      "type": "function"
    },
    {
      "inputs": [],
      "name": "owner",
      "outputs": [
        {
          "internalType": "address",
          "name": "",
          "type": "address"
        }
      ],
      "stateMutability": "view",
      "type": "function"
    },
    {
      "inputs": [
        {
          "internalType": "address",
          "name": "owner",
          "type": "address"
        },
        {
          "internalType": "address",
          "name": "spender",
          "type": "address"
        },
        {
          "internalType": "uint256",
          "name": "value",
          "type": "uint256"
        },
        {
          "internalType": "uint256",
          "name": "deadline",
          "type": "uint256"
        },
        {
          "internalType": "uint8",
          "name": "v",
          "type": "uint8"
        },
        {
          "internalType": "bytes32",
          "name": "r",
          "type": "bytes32"
        },
        {
          "internalType": "bytes32",
          "name": "s",
          "type": "bytes32"
        }
      ],
      "name": "permit",
      "outputs": [],
      "stateMutability": "nonpayable",
      "type": "function"
    },
    {
      "inputs": [],
      "name": "renounceOwnership",
      "outputs": [],
      "stateMutability": "nonpayable",
      "type": "function"
    },
    {
      "inputs": [],
      "name": "symbol",
      "outputs": [
        {
          "internalType": "string",
          "name": "",
          "type": "string"
        }
      ],
      "stateMutability": "view",
      "type": "function"
    },
    {
      "inputs": [],
      "name": "totalSupply",
      "outputs": [
        {
          "internalType": "uint256",
          "name": "",
          "type": "uint256"
        }
      ],
      "stateMutability": "view",
      "type": "function"
    },
    {
      "inputs": [
        {
          "internalType": "address",
          "name": "to",
          "type": "address"
        },
        {
          "internalType": "uint256",
          "name": "amount",
          "type": "uint256"
        }
      ],
      "name": "transfer",
      "outputs": [
        {
          "internalType": "bool",
          "name": "",
          "type": "bool"
        }
      ],
      "stateMutability": "nonpayable",
      "type": "function"
    },
    {
      "inputs": [
        {
          "internalType": "address",
          "name": "from",
          "type": "address"
        },
        {
          "internalType": "address",
          "name": "to",
          "type": "address"
        },
        {
          "internalType": "uint256",
          "name": "amount",
          "type": "uint256"
        }
      ],
      "name": "transferFrom",
      "outputs": [
        {
          "internalType": "bool",
          "name": "",
          "type": "bool"
        }
      ],
      "stateMutability": "nonpayable",
      "type": "function"
    },
    {
      "inputs": [
        {
          "internalType": "address",
          "name": "newOwner",
          "type": "address"
        }
      ],
      "name": "transferOwnership",
      "outputs": [],
      "stateMutability": "nonpayable",
      "type": "function"
    }
  ],
  "bytecode": "0x6101406040523480156200001257600080fd5b506040518060400160405280600981526020017f4d6f6e6f546f6b656e0000000000000000000000000000000000000000000000815250806040518060400160405280600181526020017f31000000000000000000000000000000000000000000000000000000000000008152506040518060400160405280600981526020017f4d6f6e6f546f6b656e00000000000000000000000000000000000000000000008152506040518060400160405280600381526020017f4d4e5400000000000000000000000000000000000000000000000000000000008152508160039080519060200190620001049291906200049c565b5080600490805190602001906200011d9291906200049c565b50505060008280519060200120905060008280519060200120905060007f8b73c3c69bb8fe3d512ecc4cf759cc79239f7b179b0ffacaa9a75d522b39400f90508260e081815250508161010081815250504660a08181525050620001898184846200021a60201b60201c565b608081815250503073ffffffffffffffffffffffffffffffffffffffff1660c08173ffffffffffffffffffffffffffffffffffffffff1660601b81525050806101208181525050505050505050620001f6620001ea6200025660201b60201c565b6200025e60201b60201c565b62000214336b204fce5e3e250261100000006200032460201b60201c565b620007b5565b6000838383463060405160200162000237959493929190620005a6565b6040516020818303038152906040528051906020012090509392505050565b600033905090565b6000600760009054906101000a900473ffffffffffffffffffffffffffffffffffffffff16905081600760006101000a81548173ffffffffffffffffffffffffffffffffffffffff021916908373ffffffffffffffffffffffffffffffffffffffff1602179055508173ffffffffffffffffffffffffffffffffffffffff168173ffffffffffffffffffffffffffffffffffffffff167f8be0079c531659141344cd1fd0a4f28419497f9722a3daafe3b4186f6b6457e060405160405180910390a35050565b600073ffffffffffffffffffffffffffffffffffffffff168273ffffffffffffffffffffffffffffffffffffffff16141562000397576040517f08c379a00000000000000000000000000000000000000000000000000000000081526004016200038e9062000603565b60405180910390fd5b620003ab600083836200049260201b60201c565b8060026000828254620003bf919062000653565b92505081905550806000808473ffffffffffffffffffffffffffffffffffffffff1673ffffffffffffffffffffffffffffffffffffffff168152602001908152602001600020600082825401925050819055508173ffffffffffffffffffffffffffffffffffffffff16600073ffffffffffffffffffffffffffffffffffffffff167fddf252ad1be2c89b69c2b068fc378daa952ba7f163c4a11628f55a4df523b3ef8360405162000472919062000625565b60405180910390a36200048e600083836200049760201b60201c565b5050565b505050565b505050565b828054620004aa90620006f8565b90600052602060002090601f016020900481019282620004ce57600085556200051a565b82601f10620004e957805160ff19168380011785556200051a565b828001600101855582156200051a579182015b8281111562000519578251825591602001919060010190620004fc565b5b5090506200052991906200052d565b5090565b5b80821115620005485760008160009055506001016200052e565b5090565b6200055781620006b0565b82525050565b6200056881620006c4565b82525050565b60006200057d601f8362000642565b91506200058a826200078c565b602082019050919050565b620005a081620006ee565b82525050565b600060a082019050620005bd60008301886200055d565b620005cc60208301876200055d565b620005db60408301866200055d565b620005ea606083018562000595565b620005f960808301846200054c565b9695505050505050565b600060208201905081810360008301526200061e816200056e565b9050919050565b60006020820190506200063c600083018462000595565b92915050565b600082825260208201905092915050565b60006200066082620006ee565b91506200066d83620006ee565b9250827fffffffffffffffffffffffffffffffffffffffffffffffffffffffffffffffff03821115620006a557620006a46200072e565b5b828201905092915050565b6000620006bd82620006ce565b9050919050565b6000819050919050565b600073ffffffffffffffffffffffffffffffffffffffff82169050919050565b6000819050919050565b600060028204905060018216806200071157607f821691505b602082108114156200072857620007276200075d565b5b50919050565b7f4e487b7100000000000000000000000000000000000000000000000000000000600052601160045260246000fd5b7f4e487b7100000000000000000000000000000000000000000000000000000000600052602260045260246000fd5b7f45524332303a206d696e7420746f20746865207a65726f206164647265737300600082015250565b60805160a05160c05160601c60e051610100516101205161250c620008086000396000610ed401526000610f1601526000610ef501526000610e2a01526000610e8001526000610ea9015261250c6000f3fe608060405234801561001057600080fd5b50600436106101165760003560e01c8063715018a6116100a2578063a457c2d711610071578063a457c2d7146102e5578063a9059cbb14610315578063d505accf14610345578063dd62ed3e14610361578063f2fde38b1461039157610116565b8063715018a61461026f5780637ecebe00146102795780638da5cb5b146102a957806395d89b41146102c757610116565b8063313ce567116100e9578063313ce567146101b75780633644e515146101d557806339509351146101f357806340c10f191461022357806370a082311461023f57610116565b806306fdde031461011b578063095ea7b31461013957806318160ddd1461016957806323b872dd14610187575b600080fd5b6101236103ad565b6040516101309190611cc8565b60405180910390f35b610153600480360381019061014e9190611840565b61043f565b6040516101609190611b99565b60405180910390f35b610171610462565b60405161017e9190611eca565b60405180910390f35b6101a1600480360381019061019c9190611753565b61046c565b6040516101ae9190611b99565b60405180910390f35b6101bf61049b565b6040516101cc9190611ee5565b60405180910390f35b6101dd6104a4565b6040516101ea9190611bb4565b60405180910390f35b61020d60048036038101906102089190611840565b6104b3565b60405161021a9190611b99565b60405180910390f35b61023d60048036038101906102389190611840565b6104ea565b005b610259600480360381019061025491906116ee565b610500565b6040516102669190611eca565b60405180910390f35b610277610548565b005b610293600480360381019061028e91906116ee565b61055c565b6040516102a09190611eca565b60405180910390f35b6102b16105ac565b6040516102be9190611b7e565b60405180910390f35b6102cf6105d6565b6040516102dc9190611cc8565b60405180910390f35b6102ff60048036038101906102fa9190611840565b610668565b60405161030c9190611b99565b60405180910390f35b61032f600480360381019061032a9190611840565b6106df565b60405161033c9190611b99565b60405180910390f35b61035f600480360381019061035a91906117a2565b610702565b005b61037b60048036038101906103769190611717565b610844565b6040516103889190611eca565b60405180910390f35b6103ab60048036038101906103a691906116ee565b6108cb565b005b6060600380546103bc9061200f565b80601f01602080910402602001604051908101604052809291908181526020018280546103e89061200f565b80156104355780601f1061040a57610100808354040283529160200191610435565b820191906000526020600020905b81548152906001019060200180831161041857829003601f168201915b5050505050905090565b60008061044a61094f565b9050610457818585610957565b600191505092915050565b6000600254905090565b60008061047761094f565b9050610484858285610b22565b61048f858585610bae565b60019150509392505050565b60006012905090565b60006104ae610e26565b905090565b6000806104be61094f565b90506104df8185856104d08589610844565b6104da9190611f27565b610957565b600191505092915050565b6104f2610f40565b6104fc8282610fbe565b5050565b60008060008373ffffffffffffffffffffffffffffffffffffffff1673ffffffffffffffffffffffffffffffffffffffff168152602001908152602001600020549050919050565b610550610f40565b61055a6000611115565b565b60006105a5600560008473ffffffffffffffffffffffffffffffffffffffff1673ffffffffffffffffffffffffffffffffffffffff1681526020019081526020016000206111db565b9050919050565b6000600760009054906101000a900473ffffffffffffffffffffffffffffffffffffffff16905090565b6060600480546105e59061200f565b80601f01602080910402602001604051908101604052809291908181526020018280546106119061200f565b801561065e5780601f106106335761010080835404028352916020019161065e565b820191906000526020600020905b81548152906001019060200180831161064157829003601f168201915b5050505050905090565b60008061067361094f565b905060006106818286610844565b9050838110156106c6576040517f08c379a00000000000000000000000000000000000000000000000000000000081526004016106bd90611e8a565b60405180910390fd5b6106d38286868403610957565b60019250505092915050565b6000806106ea61094f565b90506106f7818585610bae565b600191505092915050565b83421115610745576040517f08c379a000000000000000000000000000000000000000000000000000000000815260040161073c90611daa565b60405180910390fd5b60007f6e71edae12b1b97f4d1f60370fef10105fa2faae0126114a169c64845d6126c98888886107748c6111e9565b8960405160200161078a96959493929190611bcf565b60405160208183030381529060405280519060200120905060006107ad82611247565b905060006107bd82878787611261565b90508973ffffffffffffffffffffffffffffffffffffffff168173ffffffffffffffffffffffffffffffffffffffff161461082d576040517f08c379a000000000000000000000000000000000000000000000000000000000815260040161082490611e0a565b60405180910390fd5b6108388a8a8a610957565b50505050505050505050565b6000600160008473ffffffffffffffffffffffffffffffffffffffff1673ffffffffffffffffffffffffffffffffffffffff16815260200190815260200160002060008373ffffffffffffffffffffffffffffffffffffffff1673ffffffffffffffffffffffffffffffffffffffff16815260200190815260200160002054905092915050565b6108d3610f40565b600073ffffffffffffffffffffffffffffffffffffffff168173ffffffffffffffffffffffffffffffffffffffff161415610943576040517f08c379a000000000000000000000000000000000000000000000000000000000815260040161093a90611d4a565b60405180910390fd5b61094c81611115565b50565b600033905090565b600073ffffffffffffffffffffffffffffffffffffffff168373ffffffffffffffffffffffffffffffffffffffff1614156109c7576040517f08c379a00000000000000000000000000000000000000000000000000000000081526004016109be90611e6a565b60405180910390fd5b600073ffffffffffffffffffffffffffffffffffffffff168273ffffffffffffffffffffffffffffffffffffffff161415610a37576040517f08c379a0000000000000000000000000000000000000000000000000000000008152600401610a2e90611d6a565b60405180910390fd5b80600160008573ffffffffffffffffffffffffffffffffffffffff1673ffffffffffffffffffffffffffffffffffffffff16815260200190815260200160002060008473ffffffffffffffffffffffffffffffffffffffff1673ffffffffffffffffffffffffffffffffffffffff168152602001908152602001600020819055508173ffffffffffffffffffffffffffffffffffffffff168373ffffffffffffffffffffffffffffffffffffffff167f8c5be1e5ebec7d5bd14f71427d1e84f3dd0314c0f7b2291e5b200ac8c7c3b92583604051610b159190611eca565b60405180910390a3505050565b6000610b2e8484610844565b90507fffffffffffffffffffffffffffffffffffffffffffffffffffffffffffffffff8114610ba85781811015610b9a576040517f08c379a0000000000000000000000000000000000000000000000000000000008152600401610b9190611d8a565b60405180910390fd5b610ba78484848403610957565b5b50505050565b600073ffffffffffffffffffffffffffffffffffffffff168373ffffffffffffffffffffffffffffffffffffffff161415610c1e576040517f08c379a0000000000000000000000000000000000000000000000000000000008152600401610c1590611e4a565b60405180910390fd5b600073ffffffffffffffffffffffffffffffffffffffff168273ffffffffffffffffffffffffffffffffffffffff161415610c8e576040517f08c379a0000000000000000000000000000000000000000000000000000000008152600401610c8590611d0a565b60405180910390fd5b610c9983838361128c565b60008060008573ffffffffffffffffffffffffffffffffffffffff1673ffffffffffffffffffffffffffffffffffffffff16815260200190815260200160002054905081811015610d1f576040517f08c379a0000000000000000000000000000000000000000000000000000000008152600401610d1690611dca565b60405180910390fd5b8181036000808673ffffffffffffffffffffffffffffffffffffffff1673ffffffffffffffffffffffffffffffffffffffff16815260200190815260200160002081905550816000808573ffffffffffffffffffffffffffffffffffffffff1673ffffffffffffffffffffffffffffffffffffffff168152602001908152602001600020600082825401925050819055508273ffffffffffffffffffffffffffffffffffffffff168473ffffffffffffffffffffffffffffffffffffffff167fddf252ad1be2c89b69c2b068fc378daa952ba7f163c4a11628f55a4df523b3ef84604051610e0d9190611eca565b60405180910390a3610e20848484611291565b50505050565b60007f000000000000000000000000000000000000000000000000000000000000000073ffffffffffffffffffffffffffffffffffffffff163073ffffffffffffffffffffffffffffffffffffffff16148015610ea257507f000000000000000000000000000000000000000000000000000000000000000046145b15610ecf577f00000000000000000000000000000000000000000000000000000000000000009050610f3d565b610f3a7f00000000000000000000000000000000000000000000000000000000000000007f00000000000000000000000000000000000000000000000000000000000000007f0000000000000000000000000000000000000000000000000000000000000000611296565b90505b90565b610f4861094f565b73ffffffffffffffffffffffffffffffffffffffff16610f666105ac565b73ffffffffffffffffffffffffffffffffffffffff1614610fbc576040517f08c379a0000000000000000000000000000000000000000000000000000000008152600401610fb390611e2a565b60405180910390fd5b565b600073ffffffffffffffffffffffffffffffffffffffff168273ffffffffffffffffffffffffffffffffffffffff16141561102e576040517f08c379a000000000000000000000000000000000000000000000000000000000815260040161102590611eaa565b60405180910390fd5b61103a6000838361128c565b806002600082825461104c9190611f27565b92505081905550806000808473ffffffffffffffffffffffffffffffffffffffff1673ffffffffffffffffffffffffffffffffffffffff168152602001908152602001600020600082825401925050819055508173ffffffffffffffffffffffffffffffffffffffff16600073ffffffffffffffffffffffffffffffffffffffff167fddf252ad1be2c89b69c2b068fc378daa952ba7f163c4a11628f55a4df523b3ef836040516110fd9190611eca565b60405180910390a361111160008383611291565b5050565b6000600760009054906101000a900473ffffffffffffffffffffffffffffffffffffffff16905081600760006101000a81548173ffffffffffffffffffffffffffffffffffffffff021916908373ffffffffffffffffffffffffffffffffffffffff1602179055508173ffffffffffffffffffffffffffffffffffffffff168173ffffffffffffffffffffffffffffffffffffffff167f8be0079c531659141344cd1fd0a4f28419497f9722a3daafe3b4186f6b6457e060405160405180910390a35050565b600081600001549050919050565b600080600560008473ffffffffffffffffffffffffffffffffffffffff1673ffffffffffffffffffffffffffffffffffffffff1681526020019081526020016000209050611236816111db565b9150611241816112d0565b50919050565b600061125a611254610e26565b836112e6565b9050919050565b600080600061127287878787611319565b9150915061127f816113fc565b8192505050949350505050565b505050565b505050565b600083838346306040516020016112b1959493929190611c30565b6040516020818303038152906040528051906020012090509392505050565b6001816000016000828254019250508190555050565b600082826040516020016112fb929190611b47565b60405160208183030381529060405280519060200120905092915050565b6000807f7fffffffffffffffffffffffffffffff5d576e7357a4501ddfe92f46681b20a08360001c11156113545760006003915091506113f3565b6000600187878787604051600081526020016040526040516113799493929190611c83565b6020604051602081039080840390855afa15801561139b573d6000803e3d6000fd5b505050602060405103519050600073ffffffffffffffffffffffffffffffffffffffff168173ffffffffffffffffffffffffffffffffffffffff1614156113ea576000600192509250506113f3565b80600092509250505b94509492505050565b60006004811115611436577f4e487b7100000000000000000000000000000000000000000000000000000000600052602160045260246000fd5b81600481111561146f577f4e487b7100000000000000000000000000000000000000000000000000000000600052602160045260246000fd5b141561147a57611697565b600160048111156114b4577f4e487b7100000000000000000000000000000000000000000000000000000000600052602160045260246000fd5b8160048111156114ed577f4e487b7100000000000000000000000000000000000000000000000000000000600052602160045260246000fd5b141561152e576040517f08c379a000000000000000000000000000000000000000000000000000000000815260040161152590611cea565b60405180910390fd5b60026004811115611568577f4e487b7100000000000000000000000000000000000000000000000000000000600052602160045260246000fd5b8160048111156115a1577f4e487b7100000000000000000000000000000000000000000000000000000000600052602160045260246000fd5b14156115e2576040517f08c379a00000000000000000000000000000000000000000000000000000000081526004016115d990611d2a565b60405180910390fd5b6003600481111561161c577f4e487b7100000000000000000000000000000000000000000000000000000000600052602160045260246000fd5b816004811115611655577f4e487b7100000000000000000000000000000000000000000000000000000000600052602160045260246000fd5b1415611696576040517f08c379a000000000000000000000000000000000000000000000000000000000815260040161168d90611dea565b60405180910390fd5b5b50565b6000813590506116a98161247a565b92915050565b6000813590506116be81612491565b92915050565b6000813590506116d3816124a8565b92915050565b6000813590506116e8816124bf565b92915050565b60006020828403121561170057600080fd5b600061170e8482850161169a565b91505092915050565b6000806040838503121561172a57600080fd5b60006117388582860161169a565b92505060206117498582860161169a565b9150509250929050565b60008060006060848603121561176857600080fd5b60006117768682870161169a565b93505060206117878682870161169a565b9250506040611798868287016116c4565b9150509250925092565b600080600080600080600060e0888a0312156117bd57600080fd5b60006117cb8a828b0161169a565b97505060206117dc8a828b0161169a565b96505060406117ed8a828b016116c4565b95505060606117fe8a828b016116c4565b945050608061180f8a828b016116d9565b93505060a06118208a828b016116af565b92505060c06118318a828b016116af565b91505092959891949750929550565b6000806040838503121561185357600080fd5b60006118618582860161169a565b9250506020611872858286016116c4565b9150509250929050565b61188581611f7d565b82525050565b61189481611f8f565b82525050565b6118a381611f9b565b82525050565b6118ba6118b582611f9b565b612041565b82525050565b60006118cb82611f00565b6118d58185611f0b565b93506118e5818560208601611fdc565b6118ee816120a9565b840191505092915050565b6000611906601883611f0b565b9150611911826120ba565b602082019050919050565b6000611929602383611f0b565b9150611934826120e3565b604082019050919050565b600061194c601f83611f0b565b915061195782612132565b602082019050919050565b600061196f602683611f0b565b915061197a8261215b565b604082019050919050565b6000611992602283611f0b565b915061199d826121aa565b604082019050919050565b60006119b5600283611f1c565b91506119c0826121f9565b600282019050919050565b60006119d8601d83611f0b565b91506119e382612222565b602082019050919050565b60006119fb601d83611f0b565b9150611a068261224b565b602082019050919050565b6000611a1e602683611f0b565b9150611a2982612274565b604082019050919050565b6000611a41602283611f0b565b9150611a4c826122c3565b604082019050919050565b6000611a64601e83611f0b565b9150611a6f82612312565b602082019050919050565b6000611a87602083611f0b565b9150611a928261233b565b602082019050919050565b6000611aaa602583611f0b565b9150611ab582612364565b604082019050919050565b6000611acd602483611f0b565b9150611ad8826123b3565b604082019050919050565b6000611af0602583611f0b565b9150611afb82612402565b604082019050919050565b6000611b13601f83611f0b565b9150611b1e82612451565b602082019050919050565b611b3281611fc5565b82525050565b611b4181611fcf565b82525050565b6000611b52826119a8565b9150611b5e82856118a9565b602082019150611b6e82846118a9565b6020820191508190509392505050565b6000602082019050611b93600083018461187c565b92915050565b6000602082019050611bae600083018461188b565b92915050565b6000602082019050611bc9600083018461189a565b92915050565b600060c082019050611be4600083018961189a565b611bf1602083018861187c565b611bfe604083018761187c565b611c0b6060830186611b29565b611c186080830185611b29565b611c2560a0830184611b29565b979650505050505050565b600060a082019050611c45600083018861189a565b611c52602083018761189a565b611c5f604083018661189a565b611c6c6060830185611b29565b611c79608083018461187c565b9695505050505050565b6000608082019050611c98600083018761189a565b611ca56020830186611b38565b611cb2604083018561189a565b611cbf606083018461189a565b95945050505050565b60006020820190508181036000830152611ce281846118c0565b905092915050565b60006020820190508181036000830152611d03816118f9565b9050919050565b60006020820190508181036000830152611d238161191c565b9050919050565b60006020820190508181036000830152611d438161193f565b9050919050565b60006020820190508181036000830152611d6381611962565b9050919050565b60006020820190508181036000830152611d8381611985565b9050919050565b60006020820190508181036000830152611da3816119cb565b9050919050565b60006020820190508181036000830152611dc3816119ee565b9050919050565b60006020820190508181036000830152611de381611a11565b9050919050565b60006020820190508181036000830152611e0381611a34565b9050919050565b60006020820190508181036000830152611e2381611a57565b9050919050565b60006020820190508181036000830152611e4381611a7a565b9050919050565b60006020820190508181036000830152611e6381611a9d565b9050919050565b60006020820190508181036000830152611e8381611ac0565b9050919050565b60006020820190508181036000830152611ea381611ae3565b9050919050565b60006020820190508181036000830152611ec381611b06565b9050919050565b6000602082019050611edf6000830184611b29565b92915050565b6000602082019050611efa6000830184611b38565b92915050565b600081519050919050565b600082825260208201905092915050565b600081905092915050565b6000611f3282611fc5565b9150611f3d83611fc5565b9250827fffffffffffffffffffffffffffffffffffffffffffffffffffffffffffffffff03821115611f7257611f7161204b565b5b828201905092915050565b6000611f8882611fa5565b9050919050565b60008115159050919050565b6000819050919050565b600073ffffffffffffffffffffffffffffffffffffffff82169050919050565b6000819050919050565b600060ff82169050919050565b60005b83811015611ffa578082015181840152602081019050611fdf565b83811115612009576000848401525b50505050565b6000600282049050600182168061202757607f821691505b6020821081141561203b5761203a61207a565b5b50919050565b6000819050919050565b7f4e487b7100000000000000000000000000000000000000000000000000000000600052601160045260246000fd5b7f4e487b7100000000000000000000000000000000000000000000000000000000600052602260045260246000fd5b6000601f19601f8301169050919050565b7f45434453413a20696e76616c6964207369676e61747572650000000000000000600082015250565b7f45524332303a207472616e7366657220746f20746865207a65726f206164647260008201527f6573730000000000000000000000000000000000000000000000000000000000602082015250565b7f45434453413a20696e76616c6964207369676e6174757265206c656e67746800600082015250565b7f4f776e61626c653a206e6577206f776e657220697320746865207a65726f206160008201527f6464726573730000000000000000000000000000000000000000000000000000602082015250565b7f45524332303a20617070726f766520746f20746865207a65726f20616464726560008201527f7373000000000000000000000000000000000000000000000000000000000000602082015250565b7f1901000000000000000000000000000000000000000000000000000000000000600082015250565b7f45524332303a20696e73756666696369656e7420616c6c6f77616e6365000000600082015250565b7f45524332305065726d69743a206578706972656420646561646c696e65000000600082015250565b7f45524332303a207472616e7366657220616d6f756e742065786365656473206260008201527f616c616e63650000000000000000000000000000000000000000000000000000602082015250565b7f45434453413a20696e76616c6964207369676e6174757265202773272076616c60008201527f7565000000000000000000000000000000000000000000000000000000000000602082015250565b7f45524332305065726d69743a20696e76616c6964207369676e61747572650000600082015250565b7f4f776e61626c653a2063616c6c6572206973206e6f7420746865206f776e6572600082015250565b7f45524332303a207472616e736665722066726f6d20746865207a65726f20616460008201527f6472657373000000000000000000000000000000000000000000000000000000602082015250565b7f45524332303a20617070726f76652066726f6d20746865207a65726f2061646460008201527f7265737300000000000000000000000000000000000000000000000000000000602082015250565b7f45524332303a2064656372656173656420616c6c6f77616e63652062656c6f7760008201527f207a65726f000000000000000000000000000000000000000000000000000000602082015250565b7f45524332303a206d696e7420746f20746865207a65726f206164647265737300600082015250565b61248381611f7d565b811461248e57600080fd5b50565b61249a81611f9b565b81146124a557600080fd5b50565b6124b181611fc5565b81146124bc57600080fd5b50565b6124c881611fcf565b81146124d357600080fd5b5056fea2646970667358221220921d685b9d4f4beeea22934f9e83d087b8216bb6062e2fce1038453e3a07b14764736f6c63430008040033",
  "linkReferences": {},
  "deployedLinkReferences": {}
}